:100000000C942A000C944F030C9447000C94470066
:100010000C9447000C94A4030C9447000C944700E4
:100020000C9447000C949A030C9447000C944700DE
:100030000C9447000C9447000C9447000C94470024
:100040000C9447000C9447000C9447000C94470014
:100050000C94470011241FBECFE5D8E0DEBFCDBF12
:1000600010E0A0E6B0E0E0E7F7E102C005900D92F5
:10007000AE39B107D9F720E0AEE9B0E001C01D927A
:10008000AF3AB207E1F70E949C070C94B60B0C94B0
:1000900000000E94EE030E9485070E9429090E9429
:1000A000FC090E940F040E94C9030E94390562E303
:1000B00070E080E090E00E94500980E00E947706A6
:1000C00081E00E94770682E00E94770683E00E942A
:1000D000770680E00E94C50681E00E94C50682E0A6
:1000E0000E94C50683E00E94C5060895CF93DF9362
:1000F00000D0CDB7DEB719821A8210929E001092FE
:100100009F001092A0001092A10088E893E10E9445
:10011000290A6093A2007093A3008093A400909397
:10012000A5000E94130A39C061E080E00E94D40556
:1001300080E690E00E94C105AE014F5F5F4F63E033
:1001400083E00E94CF0364E670E080E090E00E94CC
:100150005009AE014F5F5F4F63E083E00E94CF0321
:1001600089818823D1F08091A6008F5F8093A600BB
:10017000813041F461E00E94D4058DE690E00E9458
:10018000C1050AC0823041F461E081E00E94D405DB
:100190008BE790E00E94C105198240919E0050912A
:1001A0009F006091A0007091A1008091A2009091A9
:1001B000A300A091A400B091A500481759076A07B1
:1001C0007B0708F4B1CF0E941E0ACE0102960E945E
:1001D0004D048A818133C9F781E00E94F00464E113
:1001E00070E080E090E00E94500962E080E00E94B0
:1001F000D4058AE890E00E94C10560ED77E080E0D8
:1002000090E00E94500981E00E94F00464E170E0F7
:1002100080E090E00E9450090F900F90DF91CF9105
:10022000089510929E0010929F001092A0001092CC
:10023000A1001092A2001092A3001092A4001092AC
:10024000A5000E948B0788E893E10E94290A609329
:10025000A2007093A3008093A4009093A50082C095
:10026000AFE9B6E40E94850B880F892F881F990B90
:1002700091958093AA000E94130A2DC080E00E94ED
:100280005F0781E00E945F0782E00E945F0783E0D2
:100290000E945F0761E080E00E94D40560EE74EC8C
:1002A00080E090E00E948C0980E00E94390781E0A4
:1002B0000E94390782E00E94390783E00E943907D3
:1002C00082E990E00E94C1056091AA0070E080E0A0
:1002D00090E00E94EC0540919E0050919F0060913B
:1002E000A0007091A1008091A2009091A300A09124
:1002F000A400B091A500481759076A077B0708F4C6
:10030000BDCF0E941E0A80E00E945F0781E00E942C
:100310005F0782E00E945F0783E00E945F0761E061
:1003200080E00E94D40560E570E580E090E00E94E6
:100330008C0980E00E94390781E00E94390782E041
:100340000E94390783E00E94390782E990E00E9409
:10035000C1056091AA0070E080E090E00E94EC0589
:100360000E948B072091A8003091A900203B80E8D3
:10037000380708F075CF2FC080E00E945F0781E04A
:100380000E945F0782E00E945F0783E00E945F0790
:1003900061E080E00E94D40560E570E580E090E0D7
:1003A0000E948C0980E00E94390781E00E94390791
:1003B00082E00E94390783E00E94390782E990E0D9
:1003C0000E94C1056091AA0070E080E090E00E9468
:1003D000EC050E948B078091A8009091A9008036BF
:1003E000964350F610929E0010929F001092A0002B
:1003F0001092A10084EF91E00E94290A6093A2006C
:100400007093A3008093A4009093A50065C080E042
:100410000E94390781E00E94390782E00E94390773
:1004200083E00E9439070E94130A06C082E00E94FE
:100430005F0783E00E945F0740919E0050919F00FC
:100440006091A0007091A1008091A2009091A30002
:10045000A091A400B091A500481759076A077B072F
:1004600028F30E941E0A2FC080E00E945F0781E0EF
:100470000E945F0782E00E945F0783E00E945F079F
:1004800061E080E00E94D40560E570E580E090E0E6
:100490000E948C0980E00E94390781E00E943907A0
:1004A00082E00E94390783E00E94390782E990E0E8
:1004B0000E94C1056091AA0070E080E090E00E9477
:1004C000EC050E948B078091A8009091A9008036CE
:1004D000964350F60E948B078091A8009091A90046
:1004E0008034944208F093CFD1C080E00E94FF0690
:1004F00081E00E94FF0682E00E94FF0683E00E94E6
:10050000FF062FC080E00E945F0781E00E945F0726
:1005100082E00E945F0783E00E945F0761E080E065
:100520000E94D40560E570E580E090E00E948C09AF
:1005300080E00E94390781E00E94390782E00E9432
:10054000390783E00E94390782E990E00E94C105E3
:100550006091AA0070E080E090E00E94EC050E94AB
:100560008B078091A8009091A9008031964250F2AB
:1005700010929E0010929F001092A0001092A10075
:1005800084EF91E00E94290A6093A2007093A30077
:100590008093A4009093A5000E94130A80E00E941B
:1005A000C50681E00E94C50682E00E94C50683E080
:1005B0000E94C50663C080E00E94390781E00E9466
:1005C000390782E00E94390783E00E94390706C09C
:1005D00082E00E945F0783E00E945F0740919E00D7
:1005E00050919F006091A0007091A1008091A200A5
:1005F0009091A300A091A400B091A50048175907BD
:100600006A077B0728F30E948B070E941E0A2FC0EF
:1006100080E00E945F0781E00E945F0782E00E9405
:100620005F0783E00E945F0761E080E00E94D405DD
:1006300060E570E580E090E00E948C0980E00E9417
:10064000390781E00E94390782E00E94390783E080
:100650000E94390782E990E00E94C1056091AA00DA
:1006600070E080E090E00E94EC050E948B07809192
:10067000A8009091A9008036964350F68091A8007A
:100680009091A9008031964208F095CF8091A80002
:100690009091A9008034944208F427CF08951F92C6
:1006A0000F920FB60F9211242F933F934F935F93A6
:1006B0006F937F938F939F93AF93BF93EF93FF932A
:1006C0008091A7008F5F8093A700813019F40E946A
:1006D00006041FC08230E9F40E940C040E94F40357
:1006E0009093A9008093A80080E090E00E94090404
:1006F0001092A7002091A8003091A900AFE9B6E4BC
:100700000E94850B880F892F881F990B91958093E4
:10071000AA00FF91EF91BF91AF919F918F917F912F
:100720006F915F914F913F912F910F900FBE0F905E
:100730001F9018951F920F920FB60F9211240F90D1
:100740000FBE0F901F9018951F920F920FB60F9229
:1007500011248F939F93AF93BF9380919E009091AC
:100760009F00A091A000B091A1000196A11DB11D14
:1007700080939E0090939F00A093A000B093A1004F
:10078000BF91AF919F918F910F900FBE0F901F90CF
:10079000189540E063E083E00E94A30708950F935B
:1007A0001F93CF93DF931F92CDB7DEB78A011982D3
:1007B000AE014F5F5F4F0E94A108811105C0898182
:1007C000F801808381E004C08981F801808380E0A2
:1007D0000F90DF91CF911F910F9108950E94C00952
:1007E0000E941D0980E00895CF93DF9300D0CDB71C
:1007F000DEB71A821982CE0101960E94F30989811F
:100800009A810F900F90DF91CF9108950E94DB099C
:1008100008950E94F90908950E94E809089541E0A9
:1008200065E083E00E94A30741E066E083E00E9468
:10083000A30741E067E083E00E94A30740E060E097
:1008400083E00E94A30740E061E083E00E94A307E9
:1008500040E064E083E00E94A30741E065E083E0BC
:100860000E94220841E066E083E00E94220841E005
:1008700067E083E00E94220841E060E083E00E949C
:10088000220841E061E083E00E94220841E064E048
:1008900083E00E94220880E00895EF92FF920F9378
:1008A0001F93CF93DF9300D000D000D0CDB7DEB739
:1008B0007C0185E0898386E08A8387E08B831C82C4
:1008C00081E08D8384E08E8300E079C0033039F4C9
:1008D00040E060E083E00E94220810E062C0E1E0B6
:1008E000F0E0EC0FFD1FE00FF11D40E0608183E0C0
:1008F0000E942208F2CFE4E0F0E0EC0FFD1FE10FD0
:10090000F11DA701608183E00E94A108F7018081A9
:10091000811146C0011111C0111103C081E3808310
:1009200033C0113021F482E3F70180832DC01230EF
:1009300059F583E3F701808327C0013091F4111149
:1009400004C084E3F70180831FC0113021F485E3E4
:10095000F701808319C01230B9F486E3F701808370
:1009600013C0023089F4111104C087E3F7018083BA
:100970000BC0113021F488E3F701808305C01230E9
:1009800019F489E3F7018083E1E0F0E0EC0FFD1F4B
:10099000E00FF11D608183E00E94DF0880E013C05A
:1009A0001F5F133008F4A7CFE1E0F0E0EC0FFD1F6C
:1009B000E00FF11D608183E00E94DF080F5F0330CC
:1009C00008F484CF81E026960FB6F894DEBF0FBE00
:1009D000CDBFDF91CF911F910F91FF90EF900895C0
:1009E000CF93C82F0E94290940E061E080E00E9477
:1009F000220840E062E080E00E94220840E063E0DC
:100A000080E00E9422088BB39C2F907F8F70892BEF
:100A10008BBB41E063E080E00E94220861E070E06F
:100A200080E090E00E94500940E063E080E00E9496
:100A3000220820E1C29FC00111249BB39F70892B23
:100A40008BBB41E063E080E00E94220861E070E03F
:100A500080E090E00E94500940E063E080E00E9466
:100A6000220865E070E080E090E00E945009CF919C
:100A700008950E94290941E061E080E00E94A307F7
:100A800041E062E080E00E94A30741E063E080E093
:100A90000E94A30741E064E080E00E94A30741E0D8
:100AA00065E080E00E94A30741E066E080E00E94EC
:100AB000A30741E067E080E00E94A30764E170E0E3
:100AC00080E090E00E94500983E30E94F00482E3FA
:100AD0000E94F00488E20E94F0048CE00E94F0047E
:100AE00086E00E94F00482E00E94F00481E00E940F
:100AF000F0040895CF93C82F41E061E080E00E94A8
:100B0000220840E062E080E00E94220840E063E0CA
:100B100080E00E9422088BB39C2F907F8F70892BDE
:100B20008BBB41E063E080E00E94220861E070E05E
:100B300080E090E00E94500940E063E080E00E9485
:100B4000220820E1C29FC00111249BB39F70892B12
:100B50008BBB41E063E080E00E94220861E070E02E
:100B600080E090E00E94500940E063E080E00E9455
:100B7000220865E070E080E090E00E945009CF918B
:100B800008950F931F93CF938C01C0E003C00E9480
:100B90007A05CF5FF801EC0FF11D80818111F7CF4D
:100BA000CF911F910F910895CF93DF9300D0CDB7D0
:100BB000DEB790E8998390EC9A83E1E0F0E0EC0FE7
:100BC000FD1FE80FF11D8081860F0E94F0040F9039
:100BD0000F90DF91CF9108951F93CF93DF93CDB7FF
:100BE000DEB72A970FB6F894DEBF0FBECDBF9923AC
:100BF000DCF590958095709561957F4F8F4F9F4F55
:100C000010E013C02AE030E040E050E00E94660BA4
:100C1000E1E0F0E0EC0FFD1FE10FF11D605D60838E
:100C2000622F732F842F952F1F5F16161706180635
:100C3000190644F3E1E0F0E0EC0FFD1FE10FF11DB8
:100C40008DE280831F5F0DC0E12FF0E0319781E0DE
:100C500090E08C0F9D1FE80FF91F80810E947A059C
:100C600011501111F1CF39C0611571058105910540
:100C700021F480E30E947A0530C016161706180684
:100C80001906ACF02AC02AE030E040E050E00E94B3
:100C9000660BE1E0F0E0EC0FFD1FE10FF11D605D80
:100CA0006083622F732F842F952F1F5F01C010E088
:100CB000161617061806190634F30DC0E12FF0E0DA
:100CC000319781E090E08C0F9D1FE80FF91F808124
:100CD0000E947A0511501111F1CF2A960FB6F8949F
:100CE000DEBF0FBECDBFDF91CF911F910895813040
:100CF000B9F028F0823029F18330A1F144C041E0FD
:100D000060E081E00E94A30741E061E081E00E9491
:100D1000A30741E062E081E00E94A30780E008951C
:100D200041E063E081E00E94A30741E064E081E0EC
:100D30000E94A30741E065E081E00E94A30780E0F4
:100D4000089541E060E082E00E94A30741E061E095
:100D500082E00E94A30741E062E082E00E94A307D4
:100D600080E0089541E063E082E00E94A30741E053
:100D700064E082E00E94A30741E065E082E00E9417
:100D8000A30780E0089581E00895813091F028F074
:100D90008230D9F0833029F130C041E060E081E059
:100DA0000E94220840E061E081E00E94220880E089
:100DB000089541E063E081E00E94220840E064E0A1
:100DC00081E00E94220880E0089541E060E082E036
:100DD0000E94220840E061E082E00E94220880E058
:100DE000089541E063E082E00E94220840E064E070
:100DF00082E00E94220880E0089581E00895813019
:100E000091F028F08230D9F0833029F130C040E0F1
:100E100060E081E00E94220841E061E081E00E9400
:100E2000220880E0089540E063E081E00E9422080B
:100E300041E064E081E00E94220880E0089540E003
:100E400060E082E00E94220841E061E082E00E94CE
:100E5000220880E0089540E063E082E00E942208DA
:100E600041E064E082E00E94220880E0089581E091
:100E70000895813069F028F0823089F08330B1F034
:100E80001CC040E062E081E00E94220880E00895FA
:100E900040E065E081E00E94220880E0089540E0A3
:100EA00062E082E00E94220880E0089540E065E070
:100EB00082E00E94220880E0089581E00895813058
:100EC00069F028F0823089F08330B1F01CC041E035
:100ED00062E081E00E94220880E0089541E065E040
:100EE00081E00E94220880E0089541E062E082E013
:100EF0000E94220880E0089541E065E082E00E94BF
:100F0000220880E0089581E0089541E060E080E0FB
:100F10000E94A307089541E060E080E00E9422085B
:100F20006FE070E080E090E00E948C0940E060E0BB
:100F300080E00E94220808950E9449000E947600E5
:100F40000E941101FDCF442319F04130E9F174C032
:100F5000813099F028F08230E9F0833041F16EC0A1
:100F60002AB381E090E002C0880F991F6A95E2F7EA
:100F7000809582238ABB80E0089527B381E090E0CA
:100F800002C0880F991F6A95E2F78095822387BB7C
:100F900080E0089524B381E090E002C0880F991F9B
:100FA0006A95E2F78095822384BB80E0089521B39F
:100FB00081E090E002C0880F991F6A95E2F7809562
:100FC000822381BB80E00895813091F028F0823047
:100FD000D9F0833029F134C02AB381E090E002C017
:100FE000880F991F6A95E2F7822B8ABB80E00895EB
:100FF00027B381E090E002C0880F991F6A95E2F75D
:10100000822B87BB80E0089524B381E090E002C08A
:10101000880F991F6A95E2F7822B84BB80E00895C0
:1010200021B381E090E002C0880F991F6A95E2F732
:10103000822B81BB80E0089581E0089581E00895CE
:1010400081E00895442319F04130E9F174C0813002
:1010500099F028F08230E9F0833041F16EC02BB373
:1010600081E090E002C0880F991F6A95E2F78095B1
:1010700082238BBB80E0089528B381E090E002C01A
:10108000880F991F6A95E2F78095822388BB80E0DC
:10109000089525B381E090E002C0880F991F6A95FA
:1010A000E2F78095822385BB80E0089522B381E03A
:1010B00090E002C0880F991F6A95E2F7809582231D
:1010C00082BB80E00895813091F028F08230D9F021
:1010D000833029F134C02BB381E090E002C0880F47
:1010E000991F6A95E2F7822B8BBB80E0089528B3A5
:1010F00081E090E002C0880F991F6A95E2F7822B89
:1011000088BB80E0089525B381E090E002C0880F9D
:10111000991F6A95E2F7822B85BB80E0089522B380
:1011200081E090E002C0880F991F6A95E2F7822B58
:1011300082BB80E0089581E0089581E0089581E018
:101140000895813099F028F08230E9F0833041F140
:1011500034C089B390E002C0959587956A95E2F70F
:10116000817089BBFA01808380E0089586B390E0A6
:1011700002C0959587956A95E2F7817086BBFA0162
:10118000808380E0089583B390E002C095958795B1
:101190006A95E2F7817083BBFA01808380E008954D
:1011A00080B390E002C0959587956A95E2F78170CB
:1011B00080BBFA01808380E0089581E0089581304A
:1011C00091F028F08230D9F0833029F130C02BB370
:1011D00081E090E002C0880F991F6A95E2F78227AC
:1011E0008BBB80E0089528B381E090E002C0880FB7
:1011F000991F6A95E2F7822788BB80E0089525B39E
:1012000081E090E002C0880F991F6A95E2F782277B
:1012100085BB80E0089522B381E090E002C0880F92
:10122000991F6A95E2F7822782BB80E0089581E0EA
:1012300008958FB780688FBF08950E94190985B7F8
:10124000816085BF85B78D7F85BF8BB780648BBF7D
:10125000089583B78F7783BF83B78F7B83BF83B7AF
:10126000877F83BF83B78F7E83BF83B78F7D83BF25
:1012700080E0089583B7816083BF83B78D7F83BF8C
:1012800083B78B7F83BF80E0089583B78E7F83BF52
:1012900083B78D7F83BF83B78B7F83BF80E0089543
:1012A0000E94D80A2FE632E143E05DE30E94370A4C
:1012B0000E94A90A6093AB007093AC008093AD00CC
:1012C0009093AE0012BE0E943A0940E050E0BA018D
:1012D0000AC008B600FEFDCF88B7816088BF4F5FA7
:1012E0005F4F6F4F7F4F8091AB009091AC00A0910A
:1012F000AD00B091AE00481759076A077B0748F365
:101300001092AB001092AC001092AD001092AE00A3
:101310000E94450980E00895DC01CB01689414F82F
:10132000B695A795979587951694D1F78093AB00BE
:101330009093AC00A093AD00B093AE0012BE0E949B
:101340003A0940E050E0BA010AC008B600FEFDCFFD
:1013500088B7816088BF4F5F5F4F6F4F7F4F80912D
:10136000AB009091AC00A091AD00B091AE004817D9
:1013700059076A077B0748F30E94450980E00895F2
:101380008FB58E7F8FBD8FB58D7F8FBD8EB5877FDB
:101390008EBD8EB58F7E8EBD8FB584608FBD8FB5AF
:1013A00088608FBD8FB780688FBF89B79AB7846018
:1013B0009ABF89BF08951DBC1CBC8EB581608EBDCF
:1013C0008EB58D7F8EBD8EB58B7F8EBD80E00895EE
:1013D0008EB58E7F8EBD8EB58D7F8EBD8EB58B7F8B
:1013E0008EBD81E008952CB53DB5FC01318320838D
:1013F00008959DBD8CBD089585B58F7785BD85B554
:101400008F7B85BD85B5877F85BD85B58F7E85BD85
:1014100085B58F7D85BD8FB780688FBF89B78064A4
:1014200089BF80E0089585B5816085BD85B58D7FD4
:1014300085BD85B58B7F85BD80E0089585B58E7FA0
:1014400085BD85B58D7F85BD85B58B7F85BD80E0EC
:101450000895BC0180E090E00E94D80A2FE632E1B6
:1014600043E05DE30E94370A0E94A90A08950E94A2
:101470004B0A0C942C0B0E94250B58F00E941E0B5B
:1014800040F029F45F3F29F00C94150B51110C9496
:10149000600B0C941B0B0E943D0B68F39923B1F376
:1014A000552391F3951B550BBB27AA27621773078A
:1014B000840738F09F5F5F4F220F331F441FAA1F1E
:1014C000A9F335D00E2E3AF0E0E832D091505040DA
:1014D000E695001CCAF72BD0FE2F29D0660F771F88
:1014E000881FBB1F261737074807AB07B0E809F06E
:1014F000BB0B802DBF01FF2793585F4F3AF09E3FF3
:10150000510578F00C94150B0C94600B5F3FE4F3DD
:10151000983ED4F3869577956795B795F7959F5F35
:10152000C9F7880F911D9695879597F90895E1E081
:10153000660F771F881FBB1F621773078407BA07E0
:1015400020F0621B730B840BBA0BEE1F88F7E0953B
:1015500008950E94450B88F09F5798F0B92F99275E
:10156000B751B0F0E1F0660F771F881F991F1AF08E
:10157000BA95C9F714C0B13091F00E945F0BB1E089
:1015800008950C945F0B672F782F8827B85F39F088
:10159000B93FCCF3869577956795B395D9F73EF427
:1015A00090958095709561957F4F8F4F9F4F0895CF
:1015B000E89409C097FB3EF49095809570956195ED
:1015C0007F4F8F4F9F4F9923A9F0F92F96E9BB27A3
:1015D0009395F695879577956795B795F111F8CF1F
:1015E000FAF4BB0F11F460FF1BC06F5F7F4F8F4F8A
:1015F0009F4F16C0882311F096E911C0772321F080
:101600009EE8872F762F05C0662371F096E8862F17
:1016100070E060E02AF09A95660F771F881FDAF76E
:10162000880F9695879597F9089597F99F6780E8B1
:1016300070E060E008959FEF80EC089500240A9424
:101640001616170618060906089500240A9412169D
:101650001306140605060895092E0394000C11F4D0
:10166000882352F0BB0F40F4BF2B11F460FF04C07D
:101670006F5F7F4F8F4F9F4F089557FD9058440FD6
:10168000551F59F05F3F71F04795880F97FB991FE1
:1016900061F09F3F79F0879508951216130614069E
:1016A000551FF2CF4695F1DF08C01616170618062B
:1016B000991FF1CF86957105610508940895E89406
:1016C000BB2766277727CB0197F90895052E97FB4F
:1016D0001EF400940E947D0B57FD07D00E94940BCE
:1016E00007FC03D04EF40C947D0B5095409530953B
:1016F00021953F4F4F4F5F4F08959095809570957E
:1017000061957F4F8F4F9F4F0895A29FB001B39F68
:10171000C001A39F700D811D1124911DB29F700DFA
:10172000811D1124911D0895A1E21A2EAA1BBB1B35
:10173000FD010DC0AA1FBB1FEE1FFF1FA217B3079D
:10174000E407F50720F0A21BB30BE40BF50B661FB3
:10175000771F881F991F1A9469F760957095809577
:1017600090959B01AC01BD01CF010895F894FFCF86
:10177000536574204465662E20526F74004C4546B4
:101780005420524F544154494F4E005249474854F7
:1017900020524F544154494F4E0057616974696E4D
:0E17A000670044697374616E6365203A00004F
:00000001FF
